{
  "contractName": "MarketPlace",
  "abi": [
    {
      "anonymous": false,
      "inputs": [
        {
          "indexed": false,
          "internalType": "uint256",
          "name": "id",
          "type": "uint256"
        }
      ],
      "name": "NewProperty",
      "type": "event"
    },
    {
      "anonymous": false,
      "inputs": [
        {
          "indexed": true,
          "internalType": "address",
          "name": "_from",
          "type": "address"
        },
        {
          "indexed": true,
          "internalType": "address",
          "name": "_to",
          "type": "address"
        },
        {
          "indexed": false,
          "internalType": "uint256",
          "name": "_value",
          "type": "uint256"
        }
      ],
      "name": "Transfer",
      "type": "event"
    },
    {
      "constant": true,
      "inputs": [
        {
          "internalType": "address",
          "name": "",
          "type": "address"
        }
      ],
      "name": "ownerPropertiesCount",
      "outputs": [
        {
          "internalType": "uint256",
          "name": "",
          "type": "uint256"
        }
      ],
      "payable": false,
      "stateMutability": "view",
      "type": "function"
    },
    {
      "constant": true,
      "inputs": [
        {
          "internalType": "uint256",
          "name": "",
          "type": "uint256"
        }
      ],
      "name": "propertiesToOwner",
      "outputs": [
        {
          "internalType": "address",
          "name": "",
          "type": "address"
        }
      ],
      "payable": false,
      "stateMutability": "view",
      "type": "function"
    },
    {
      "constant": false,
      "inputs": [
        {
          "internalType": "uint256",
          "name": "_price",
          "type": "uint256"
        },
        {
          "internalType": "string",
          "name": "_propertyAddress",
          "type": "string"
        },
        {
          "internalType": "string",
          "name": "_urlImage",
          "type": "string"
        },
        {
          "internalType": "string",
          "name": "_description",
          "type": "string"
        },
        {
          "internalType": "uint256",
          "name": "_surface",
          "type": "uint256"
        },
        {
          "internalType": "string",
          "name": "_hashDocument",
          "type": "string"
        }
      ],
      "name": "createProperty",
      "outputs": [],
      "payable": false,
      "stateMutability": "nonpayable",
      "type": "function"
    },
    {
      "constant": false,
      "inputs": [
        {
          "internalType": "address",
          "name": "_to",
          "type": "address"
        },
        {
          "internalType": "uint256",
          "name": "_tokenId",
          "type": "uint256"
        }
      ],
      "name": "transfer",
      "outputs": [],
      "payable": true,
      "stateMutability": "payable",
      "type": "function"
    },
    {
      "constant": true,
      "inputs": [
        {
          "internalType": "address",
          "name": "_address",
          "type": "address"
        }
      ],
      "name": "getOwnerPropertiesCount",
      "outputs": [
        {
          "internalType": "uint256",
          "name": "",
          "type": "uint256"
        }
      ],
      "payable": false,
      "stateMutability": "view",
      "type": "function"
    },
    {
      "constant": true,
      "inputs": [],
      "name": "getPropertiesCount",
      "outputs": [
        {
          "internalType": "uint256",
          "name": "count",
          "type": "uint256"
        }
      ],
      "payable": false,
      "stateMutability": "view",
      "type": "function"
    },
    {
      "constant": true,
      "inputs": [],
      "name": "getAllProperties",
      "outputs": [
        {
          "components": [
            {
              "internalType": "uint256",
              "name": "price",
              "type": "uint256"
            },
            {
              "internalType": "string",
              "name": "propertyAddress",
              "type": "string"
            },
            {
              "internalType": "string",
              "name": "urlImage",
              "type": "string"
            },
            {
              "internalType": "string",
              "name": "description",
              "type": "string"
            },
            {
              "internalType": "uint256",
              "name": "surface",
              "type": "uint256"
            },
            {
              "internalType": "string",
              "name": "hashDocument",
              "type": "string"
            }
          ],
          "internalType": "struct MarketPlace.Property[]",
          "name": "",
          "type": "tuple[]"
        }
      ],
      "payable": false,
      "stateMutability": "view",
      "type": "function"
    }
  ],
  "bytecode": "0x608060405234801561001057600080fd5b50610f07806100206000396000f3fe6080604052600436106100705760003560e01c806373e1e3621161004e57806373e1e362146101085780638d642c9f14610145578063a9059cbb14610182578063e31f492e1461019e57610070565b8063110a41ca14610075578063174000bc146100b25780633d51402c146100dd575b600080fd5b34801561008157600080fd5b5061009c600480360361009791908101906109fd565b6101c7565b6040516100a99190610d3e565b60405180910390f35b3480156100be57600080fd5b506100c76101df565b6040516100d49190610d3e565b60405180910390f35b3480156100e957600080fd5b506100f26101eb565b6040516100ff9190610d1c565b60405180910390f35b34801561011457600080fd5b5061012f600480360361012a9190810190610a62565b6104e6565b60405161013c9190610d01565b60405180910390f35b34801561015157600080fd5b5061016c600480360361016791908101906109fd565b610519565b6040516101799190610d3e565b60405180910390f35b61019c60048036036101979190810190610a26565b610562565b005b3480156101aa57600080fd5b506101c560048036036101c09190810190610a8b565b610571565b005b60026020528060005260406000206000915090505481565b60008080549050905090565b60606000805480602002602001604051908101604052809291908181526020016000905b828210156104dd57838290600052602060002090600602016040518060c001604052908160008201548152602001600182018054600181600116156101000203166002900480601f0160208091040260200160405190810160405280929190818152602001828054600181600116156101000203166002900480156102d55780601f106102aa576101008083540402835291602001916102d5565b820191906000526020600020905b8154815290600101906020018083116102b857829003601f168201915b50505050508152602001600282018054600181600116156101000203166002900480601f0160208091040260200160405190810160405280929190818152602001828054600181600116156101000203166002900480156103775780601f1061034c57610100808354040283529160200191610377565b820191906000526020600020905b81548152906001019060200180831161035a57829003601f168201915b50505050508152602001600382018054600181600116156101000203166002900480601f0160208091040260200160405190810160405280929190818152602001828054600181600116156101000203166002900480156104195780601f106103ee57610100808354040283529160200191610419565b820191906000526020600020905b8154815290600101906020018083116103fc57829003601f168201915b5050505050815260200160048201548152602001600582018054600181600116156101000203166002900480601f0160208091040260200160405190810160405280929190818152602001828054600181600116156101000203166002900480156104c55780601f1061049a576101008083540402835291602001916104c5565b820191906000526020600020905b8154815290600101906020018083116104a857829003601f168201915b5050505050815250508152602001906001019061020f565b50505050905090565b60016020528060005260406000206000915054906101000a900473ffffffffffffffffffffffffffffffffffffffff1681565b6000600260008373ffffffffffffffffffffffffffffffffffffffff1673ffffffffffffffffffffffffffffffffffffffff168152602001908152602001600020549050919050565b61056d338383610749565b5050565b6105796108a4565b6040518060c0016040528088815260200187815260200186815260200185815260200184815260200183815250905060006001600083908060018154018082558091505090600182039060005260206000209060060201600090919290919091506000820151816000015560208201518160010190805190602001906106009291906108da565b50604082015181600201908051906020019061061d9291906108da565b50606082015181600301908051906020019061063a9291906108da565b506080820151816004015560a08201518160050190805190602001906106619291906108da565b505050039050336001600083815260200190815260200160002060006101000a81548173ffffffffffffffffffffffffffffffffffffffff021916908373ffffffffffffffffffffffffffffffffffffffff160217905550600260003373ffffffffffffffffffffffffffffffffffffffff1673ffffffffffffffffffffffffffffffffffffffff168152602001908152602001600020600081548092919060010191905055507f49b7a39e21349b16cf820bbd35d2bc2d9f04dac75faa535510fc24d172b34afd816040516107379190610d3e565b60405180910390a15050505050505050565b600260008373ffffffffffffffffffffffffffffffffffffffff1673ffffffffffffffffffffffffffffffffffffffff16815260200190815260200160002060008154809291906001019190505550600260008473ffffffffffffffffffffffffffffffffffffffff1673ffffffffffffffffffffffffffffffffffffffff1681526020019081526020016000206000815480929190600190039190505550816001600083815260200190815260200160002060006101000a81548173ffffffffffffffffffffffffffffffffffffffff021916908373ffffffffffffffffffffffffffffffffffffffff1602179055508173ffffffffffffffffffffffffffffffffffffffff168373ffffffffffffffffffffffffffffffffffffffff167fddf252ad1be2c89b69c2b068fc378daa952ba7f163c4a11628f55a4df523b3ef836040516108979190610d3e565b60405180910390a3505050565b6040518060c001604052806000815260200160608152602001606081526020016060815260200160008152602001606081525090565b828054600181600116156101000203166002900490600052602060002090601f016020900481019282601f1061091b57805160ff1916838001178555610949565b82800160010185558215610949579182015b8281111561094857825182559160200191906001019061092d565b5b509050610956919061095a565b5090565b61097c91905b80821115610978576000816000905550600101610960565b5090565b90565b60008135905061098e81610e96565b92915050565b600082601f8301126109a557600080fd5b81356109b86109b382610d86565b610d59565b915080825260208301602083018583830111156109d457600080fd5b6109df838284610e43565b50505092915050565b6000813590506109f781610ead565b92915050565b600060208284031215610a0f57600080fd5b6000610a1d8482850161097f565b91505092915050565b60008060408385031215610a3957600080fd5b6000610a478582860161097f565b9250506020610a58858286016109e8565b9150509250929050565b600060208284031215610a7457600080fd5b6000610a82848285016109e8565b91505092915050565b60008060008060008060c08789031215610aa457600080fd5b6000610ab289828a016109e8565b965050602087013567ffffffffffffffff811115610acf57600080fd5b610adb89828a01610994565b955050604087013567ffffffffffffffff811115610af857600080fd5b610b0489828a01610994565b945050606087013567ffffffffffffffff811115610b2157600080fd5b610b2d89828a01610994565b9350506080610b3e89828a016109e8565b92505060a087013567ffffffffffffffff811115610b5b57600080fd5b610b6789828a01610994565b9150509295509295509295565b6000610b808383610c45565b905092915050565b610b9181610e07565b82525050565b6000610ba282610dc2565b610bac8185610de5565b935083602082028501610bbe85610db2565b8060005b85811015610bfa5784840389528151610bdb8582610b74565b9450610be683610dd8565b925060208a01995050600181019050610bc2565b50829750879550505050505092915050565b6000610c1782610dcd565b610c218185610df6565b9350610c31818560208601610e52565b610c3a81610e85565b840191505092915050565b600060c083016000830151610c5d6000860182610ce3565b5060208301518482036020860152610c758282610c0c565b91505060408301518482036040860152610c8f8282610c0c565b91505060608301518482036060860152610ca98282610c0c565b9150506080830151610cbe6080860182610ce3565b5060a083015184820360a0860152610cd68282610c0c565b9150508091505092915050565b610cec81610e39565b82525050565b610cfb81610e39565b82525050565b6000602082019050610d166000830184610b88565b92915050565b60006020820190508181036000830152610d368184610b97565b905092915050565b6000602082019050610d536000830184610cf2565b92915050565b6000604051905081810181811067ffffffffffffffff82111715610d7c57600080fd5b8060405250919050565b600067ffffffffffffffff821115610d9d57600080fd5b601f19601f8301169050602081019050919050565b6000819050602082019050919050565b600081519050919050565b600081519050919050565b6000602082019050919050565b600082825260208201905092915050565b600082825260208201905092915050565b6000610e1282610e19565b9050919050565b600073ffffffffffffffffffffffffffffffffffffffff82169050919050565b6000819050919050565b82818337600083830152505050565b60005b83811015610e70578082015181840152602081019050610e55565b83811115610e7f576000848401525b50505050565b6000601f19601f8301169050919050565b610e9f81610e07565b8114610eaa57600080fd5b50565b610eb681610e39565b8114610ec157600080fd5b5056fea365627a7a72315820e76e3cd066a6fe24ac19f0cfb2664510661eab6a712a07094ee1c1ceb3ecafd26c6578706572696d656e74616cf564736f6c634300050c0040",
  "source": "pragma solidity >=0.4.21;\npragma experimental ABIEncoderV2;\n\n\ncontract MarketPlace {\n\n    struct Property {\n        uint price;\n        string propertyAddress;\n        string urlImage;\n        string description;\n        uint surface;\n        string hashDocument;\n    }\n\n    Property[] properties;\n\n    mapping (uint => address) public propertiesToOwner;\n    mapping (address => uint) public ownerPropertiesCount;\n\n    event NewProperty(uint id);\n    event Transfer(address indexed _from, address indexed _to, uint256 _value);\n\n    function createProperty(uint _price, string memory _propertyAddress,\n        string memory _urlImage, string memory _description, uint _surface, string memory _hashDocument) public {\n\n        // Add the properties.\n        Property memory newProperty = Property(\n            _price,\n            _propertyAddress,\n            _urlImage,\n            _description,\n            _surface,\n            _hashDocument\n        );\n\n        uint256 id = properties.push(newProperty) - 1;\n\n        // Add the owner of the property.\n        propertiesToOwner[id] = msg.sender;\n        ownerPropertiesCount[msg.sender]++;\n        emit NewProperty(id);\n    }\n\n\n    // function _buyProperty(uint _id, address _buyer) public payable {\n    //     propertiesToOwner[_id] = _buyer;\n    // }\n\n    function transfer(address _to, uint256 _tokenId) public payable {\n        _transfer(msg.sender, _to, _tokenId);\n    }\n\n    function _transfer(address _from, address _to, uint _tokenId) private {\n        ownerPropertiesCount[_to]++;\n        ownerPropertiesCount[_from]--;\n        propertiesToOwner[_tokenId] = _to;\n        emit Transfer(_from, _to, _tokenId);\n    }\n\n    function getOwnerPropertiesCount(address _address) public view returns (uint){\n        return  ownerPropertiesCount[_address];\n    }\n\n    function getPropertiesCount() public view returns(uint count) {\n        return properties.length;\n    }\n\n    function getAllProperties() public view returns(Property[] memory){\n        return properties;\n    }\n}",
  "sourcePath": "/home/bouzeboudja/workspace/5AL/block_chain/unbox/contracts/PropertyFactory.sol",
  "compiler": {
    "name": "solc",
    "version": "0.5.12+commit.7709ece9.Emscripten.clang"
  },
  "schemaVersion": "3.0.19",
  "updatedAt": "2020-01-26T09:58:35.044Z",
  "networkType": "ethereum",
  "devdoc": {
    "methods": {}
  },
  "userdoc": {
    "methods": {}
  }
}