{
  "contractName": "PropertyFactory",
  "abi": [
    {
      "anonymous": false,
      "inputs": [
        {
          "indexed": false,
          "internalType": "uint256",
          "name": "id",
          "type": "uint256"
        }
      ],
      "name": "NewProperty",
      "type": "event"
    },
    {
      "anonymous": false,
      "inputs": [
        {
          "indexed": true,
          "internalType": "address",
          "name": "_from",
          "type": "address"
        },
        {
          "indexed": true,
          "internalType": "address",
          "name": "_to",
          "type": "address"
        },
        {
          "indexed": false,
          "internalType": "uint256",
          "name": "_value",
          "type": "uint256"
        }
      ],
      "name": "Transfer",
      "type": "event"
    },
    {
      "constant": true,
      "inputs": [
        {
          "internalType": "address",
          "name": "",
          "type": "address"
        }
      ],
      "name": "ownerPropertiesCount",
      "outputs": [
        {
          "internalType": "uint256",
          "name": "",
          "type": "uint256"
        }
      ],
      "payable": false,
      "stateMutability": "view",
      "type": "function"
    },
    {
      "constant": true,
      "inputs": [
        {
          "internalType": "uint256",
          "name": "",
          "type": "uint256"
        }
      ],
      "name": "propertiesToOwner",
      "outputs": [
        {
          "internalType": "address",
          "name": "",
          "type": "address"
        }
      ],
      "payable": false,
      "stateMutability": "view",
      "type": "function"
    },
    {
      "constant": false,
      "inputs": [
        {
          "internalType": "uint256",
          "name": "_price",
          "type": "uint256"
        },
        {
          "internalType": "string",
          "name": "_propertyAddress",
          "type": "string"
        },
        {
          "internalType": "string",
          "name": "_urlImage",
          "type": "string"
        },
        {
          "internalType": "string",
          "name": "_description",
          "type": "string"
        },
        {
          "internalType": "uint256",
          "name": "_surface",
          "type": "uint256"
        },
        {
          "internalType": "string",
          "name": "_hashDocument",
          "type": "string"
        },
        {
          "internalType": "bool",
          "name": "_availability",
          "type": "bool"
        }
      ],
      "name": "createProperty",
      "outputs": [],
      "payable": false,
      "stateMutability": "nonpayable",
      "type": "function"
    },
    {
      "constant": true,
      "inputs": [
        {
          "internalType": "address",
          "name": "_address",
          "type": "address"
        }
      ],
      "name": "getOwnerPropertiesCount",
      "outputs": [
        {
          "internalType": "uint256",
          "name": "",
          "type": "uint256"
        }
      ],
      "payable": false,
      "stateMutability": "view",
      "type": "function"
    },
    {
      "constant": true,
      "inputs": [],
      "name": "getPropertiesCount",
      "outputs": [
        {
          "internalType": "uint256",
          "name": "count",
          "type": "uint256"
        }
      ],
      "payable": false,
      "stateMutability": "view",
      "type": "function"
    },
    {
      "constant": true,
      "inputs": [],
      "name": "getAllProperties",
      "outputs": [
        {
          "components": [
            {
              "internalType": "uint256",
              "name": "id",
              "type": "uint256"
            },
            {
              "internalType": "uint256",
              "name": "price",
              "type": "uint256"
            },
            {
              "internalType": "string",
              "name": "propertyAddress",
              "type": "string"
            },
            {
              "internalType": "string",
              "name": "urlImage",
              "type": "string"
            },
            {
              "internalType": "string",
              "name": "description",
              "type": "string"
            },
            {
              "internalType": "uint256",
              "name": "surface",
              "type": "uint256"
            },
            {
              "internalType": "string",
              "name": "hashDocument",
              "type": "string"
            },
            {
              "internalType": "bool",
              "name": "availability",
              "type": "bool"
            }
          ],
          "internalType": "struct PropertyFactory.Property[]",
          "name": "",
          "type": "tuple[]"
        }
      ],
      "payable": false,
      "stateMutability": "view",
      "type": "function"
    },
    {
      "constant": false,
      "inputs": [
        {
          "internalType": "uint256",
          "name": "_idProperty",
          "type": "uint256"
        },
        {
          "internalType": "uint256",
          "name": "_newPrice",
          "type": "uint256"
        }
      ],
      "name": "setPropertyPrice",
      "outputs": [],
      "payable": false,
      "stateMutability": "nonpayable",
      "type": "function"
    },
    {
      "constant": false,
      "inputs": [
        {
          "internalType": "uint256",
          "name": "_idProperty",
          "type": "uint256"
        },
        {
          "internalType": "address",
          "name": "_buyerAdress",
          "type": "address"
        }
      ],
      "name": "buyProperty",
      "outputs": [],
      "payable": true,
      "stateMutability": "payable",
      "type": "function"
    }
  ],
  "bytecode": "0x6080604052600060015534801561001557600080fd5b506112f9806100256000396000f3fe60806040526004361061007b5760003560e01c80638d642c9f1161004e5780638d642c9f146101505780639e92a6941461018d578063beb8354c146101a9578063d4ec915e146101d25761007b565b8063110a41ca14610080578063174000bc146100bd5780633d51402c146100e857806373e1e36214610113575b600080fd5b34801561008c57600080fd5b506100a760048036036100a29190810190610c4e565b6101fb565b6040516100b491906110fc565b60405180910390f35b3480156100c957600080fd5b506100d2610213565b6040516100df91906110fc565b60405180910390f35b3480156100f457600080fd5b506100fd61021f565b60405161010a919061109a565b60405180910390f35b34801561011f57600080fd5b5061013a60048036036101359190810190610c77565b610540565b604051610147919061107f565b60405180910390f35b34801561015c57600080fd5b5061017760048036036101729190810190610c4e565b610573565b60405161018491906110fc565b60405180910390f35b6101a760048036036101a29190810190610ca0565b6105bc565b005b3480156101b557600080fd5b506101d060048036036101cb9190810190610dda565b610773565b005b3480156101de57600080fd5b506101f960048036036101f49190810190610cdc565b6108aa565b005b60036020528060005260406000206000915090505481565b60008080549050905090565b60606000805480602002602001604051908101604052809291908181526020016000905b828210156105375783829060005260206000209060080201604051806101000160405290816000820154815260200160018201548152602001600282018054600181600116156101000203166002900480601f0160208091040260200160405190810160405280929190818152602001828054600181600116156101000203166002900480156103145780601f106102e957610100808354040283529160200191610314565b820191906000526020600020905b8154815290600101906020018083116102f757829003601f168201915b50505050508152602001600382018054600181600116156101000203166002900480601f0160208091040260200160405190810160405280929190818152602001828054600181600116156101000203166002900480156103b65780601f1061038b576101008083540402835291602001916103b6565b820191906000526020600020905b81548152906001019060200180831161039957829003601f168201915b50505050508152602001600482018054600181600116156101000203166002900480601f0160208091040260200160405190810160405280929190818152602001828054600181600116156101000203166002900480156104585780601f1061042d57610100808354040283529160200191610458565b820191906000526020600020905b81548152906001019060200180831161043b57829003601f168201915b5050505050815260200160058201548152602001600682018054600181600116156101000203166002900480601f0160208091040260200160405190810160405280929190818152602001828054600181600116156101000203166002900480156105045780601f106104d957610100808354040283529160200191610504565b820191906000526020600020905b8154815290600101906020018083116104e757829003601f168201915b505050505081526020016007820160009054906101000a900460ff16151515158152505081526020019060010190610243565b50505050905090565b60026020528060005260406000206000915054906101000a900473ffffffffffffffffffffffffffffffffffffffff1681565b6000600360008373ffffffffffffffffffffffffffffffffffffffff1673ffffffffffffffffffffffffffffffffffffffff168152602001908152602001600020549050919050565b81338073ffffffffffffffffffffffffffffffffffffffff166002600084815260200190815260200160002060009054906101000a900473ffffffffffffffffffffffffffffffffffffffff1673ffffffffffffffffffffffffffffffffffffffff161461065f576040517f08c379a0000000000000000000000000000000000000000000000000000000008152600401610656906110dc565b60405180910390fd5b600115156000858154811061067057fe5b906000526020600020906008020160070160009054906101000a900460ff161515141561076d57826002600086815260200190815260200160002060006101000a81548173ffffffffffffffffffffffffffffffffffffffff021916908373ffffffffffffffffffffffffffffffffffffffff1602179055508273ffffffffffffffffffffffffffffffffffffffff163373ffffffffffffffffffffffffffffffffffffffff167fddf252ad1be2c89b69c2b068fc378daa952ba7f163c4a11628f55a4df523b3ef6000878154811061074557fe5b90600052602060002090600802016001015460405161076491906110fc565b60405180910390a35b50505050565b81338073ffffffffffffffffffffffffffffffffffffffff166002600084815260200190815260200160002060009054906101000a900473ffffffffffffffffffffffffffffffffffffffff1673ffffffffffffffffffffffffffffffffffffffff1614610816576040517f08c379a000000000000000000000000000000000000000000000000000000000815260040161080d906110dc565b60405180910390fd5b6000848154811061082357fe5b906000526020600020906008020160070160009054906101000a900460ff16610881576040517f08c379a0000000000000000000000000000000000000000000000000000000008152600401610878906110bc565b60405180910390fd5b826000858154811061088f57fe5b90600052602060002090600802016001018190555050505050565b6108b2610acf565b604051806101000160405280600154815260200189815260200188815260200187815260200186815260200185815260200184815260200183151581525090506000819080600181540180825580915050906001820390600052602060002090600802016000909192909190915060008201518160000155602082015181600101556040820151816002019080519060200190610950929190610b16565b50606082015181600301908051906020019061096d929190610b16565b50608082015181600401908051906020019061098a929190610b16565b5060a0820151816005015560c08201518160060190805190602001906109b1929190610b16565b5060e08201518160070160006101000a81548160ff0219169083151502179055505050503360026000600154815260200190815260200160002060006101000a81548173ffffffffffffffffffffffffffffffffffffffff021916908373ffffffffffffffffffffffffffffffffffffffff160217905550600360003373ffffffffffffffffffffffffffffffffffffffff1673ffffffffffffffffffffffffffffffffffffffff168152602001908152602001600020600081548092919060010191905055506001600081548092919060010191905055507f49b7a39e21349b16cf820bbd35d2bc2d9f04dac75faa535510fc24d172b34afd6001805403604051610abd91906110fc565b60405180910390a15050505050505050565b604051806101000160405280600081526020016000815260200160608152602001606081526020016060815260200160008152602001606081526020016000151581525090565b828054600181600116156101000203166002900490600052602060002090601f016020900481019282601f10610b5757805160ff1916838001178555610b85565b82800160010185558215610b85579182015b82811115610b84578251825591602001919060010190610b69565b5b509050610b929190610b96565b5090565b610bb891905b80821115610bb4576000816000905550600101610b9c565b5090565b90565b600081359050610bca81611271565b92915050565b600081359050610bdf81611288565b92915050565b600082601f830112610bf657600080fd5b8135610c09610c0482611144565b611117565b91508082526020830160208301858383011115610c2557600080fd5b610c3083828461121e565b50505092915050565b600081359050610c488161129f565b92915050565b600060208284031215610c6057600080fd5b6000610c6e84828501610bbb565b91505092915050565b600060208284031215610c8957600080fd5b6000610c9784828501610c39565b91505092915050565b60008060408385031215610cb357600080fd5b6000610cc185828601610c39565b9250506020610cd285828601610bbb565b9150509250929050565b600080600080600080600060e0888a031215610cf757600080fd5b6000610d058a828b01610c39565b975050602088013567ffffffffffffffff811115610d2257600080fd5b610d2e8a828b01610be5565b965050604088013567ffffffffffffffff811115610d4b57600080fd5b610d578a828b01610be5565b955050606088013567ffffffffffffffff811115610d7457600080fd5b610d808a828b01610be5565b9450506080610d918a828b01610c39565b93505060a088013567ffffffffffffffff811115610dae57600080fd5b610dba8a828b01610be5565b92505060c0610dcb8a828b01610bd0565b91505092959891949750929550565b60008060408385031215610ded57600080fd5b6000610dfb85828601610c39565b9250506020610e0c85828601610c39565b9150509250929050565b6000610e228383610f9c565b905092915050565b610e33816111d6565b82525050565b6000610e4482611180565b610e4e81856111a3565b935083602082028501610e6085611170565b8060005b85811015610e9c5784840389528151610e7d8582610e16565b9450610e8883611196565b925060208a01995050600181019050610e64565b50829750879550505050505092915050565b610eb7816111e8565b82525050565b6000610ec88261118b565b610ed281856111b4565b9350610ee281856020860161122d565b610eeb81611260565b840191505092915050565b6000610f036033836111c5565b91507f50726f7065727479206973206e6f7420617661696c61626c6520746f2073656c60008301527f6c206f72206974206e6f74206578697374732e000000000000000000000000006020830152604082019050919050565b6000610f696016836111c5565b91507f53656e646572206e6f7420617574686f72697a65642e000000000000000000006000830152602082019050919050565b600061010083016000830151610fb56000860182611061565b506020830151610fc86020860182611061565b5060408301518482036040860152610fe08282610ebd565b91505060608301518482036060860152610ffa8282610ebd565b915050608083015184820360808601526110148282610ebd565b91505060a083015161102960a0860182611061565b5060c083015184820360c08601526110418282610ebd565b91505060e083015161105660e0860182610eae565b508091505092915050565b61106a81611214565b82525050565b61107981611214565b82525050565b60006020820190506110946000830184610e2a565b92915050565b600060208201905081810360008301526110b48184610e39565b905092915050565b600060208201905081810360008301526110d581610ef6565b9050919050565b600060208201905081810360008301526110f581610f5c565b9050919050565b60006020820190506111116000830184611070565b92915050565b6000604051905081810181811067ffffffffffffffff8211171561113a57600080fd5b8060405250919050565b600067ffffffffffffffff82111561115b57600080fd5b601f19601f8301169050602081019050919050565b6000819050602082019050919050565b600081519050919050565b600081519050919050565b6000602082019050919050565b600082825260208201905092915050565b600082825260208201905092915050565b600082825260208201905092915050565b60006111e1826111f4565b9050919050565b60008115159050919050565b600073ffffffffffffffffffffffffffffffffffffffff82169050919050565b6000819050919050565b82818337600083830152505050565b60005b8381101561124b578082015181840152602081019050611230565b8381111561125a576000848401525b50505050565b6000601f19601f8301169050919050565b61127a816111d6565b811461128557600080fd5b50565b611291816111e8565b811461129c57600080fd5b50565b6112a881611214565b81146112b357600080fd5b5056fea365627a7a72315820cc68053d53d692aab7032cf7ec3591df3bc1095cae48f4f557bd287a8ba9427c6c6578706572696d656e74616cf564736f6c634300050c0040",
  "source": "pragma solidity >=0.4.21;\npragma experimental ABIEncoderV2;\n\n\ncontract PropertyFactory {\n\n    struct Property {\n        uint id;\n        uint256 price;\n        string propertyAddress;\n        string urlImage;\n        string description;\n        uint surface;\n        string hashDocument;\n        bool availability;\n\n    }\n\n    Property[] properties;\n\n    uint propertiesCount = 0;\n\n    mapping (uint => address) public propertiesToOwner;\n    mapping (address => uint) public ownerPropertiesCount;\n\n    event NewProperty(uint id);\n    event Transfer(address indexed _from, address indexed _to, uint256 _value);\n\n    modifier PropertyOwner(uint256 _idProperty, address _userAdress) {\n        require(propertiesToOwner[_idProperty] == _userAdress, \"Sender not authorized.\");\n        _;\n    }\n\n\n    function createProperty(uint _price, string memory _propertyAddress,\n        string memory _urlImage, string memory _description, uint _surface, string memory _hashDocument, bool _availability\n        )\n        public {\n\n        // Add the properties.\n        Property memory newProperty = Property(\n            propertiesCount,\n            _price,\n            _propertyAddress,\n            _urlImage,\n            _description,\n            _surface,\n            _hashDocument,\n            _availability\n        );\n\n        //Add property to list of properties.\n        properties.push(newProperty);\n\n        // Add the owner of the property.\n        propertiesToOwner[propertiesCount] = msg.sender;\n        ownerPropertiesCount[msg.sender]++;\n        propertiesCount ++;\n        emit NewProperty(propertiesCount - 1);\n    }\n\n    function getOwnerPropertiesCount(address _address) public view returns (uint){\n        return  ownerPropertiesCount[_address];\n    }\n\n    function getPropertiesCount() public view returns(uint count) {\n        return properties.length;\n    }\n\n    function getAllProperties() public view returns(Property[] memory){\n        return properties;\n    }\n \n    function setPropertyPrice(uint256 _idProperty, uint256 _newPrice) public PropertyOwner(_idProperty, msg.sender){\n        require(properties[_idProperty].availability, \"Property is not available to sell or it not exists.\");\n        properties[_idProperty].price = _newPrice;\n    }\n\n\n    function buyProperty(uint256 _idProperty, address _buyerAdress) public payable PropertyOwner(_idProperty, msg.sender) {\n        if(properties[_idProperty].availability == true){\n            propertiesToOwner[_idProperty] = _buyerAdress;\n            emit Transfer(msg.sender, _buyerAdress, properties[_idProperty].price);\n        }\n    }\n}",
  "sourcePath": "/home/bouzeboudja/workspace/5AL/block_chain/unbox/contracts/PropertyFactory.sol",
  "compiler": {
    "name": "solc",
    "version": "0.5.12+commit.7709ece9.Emscripten.clang"
  },
  "schemaVersion": "3.0.19",
  "updatedAt": "2020-01-26T11:41:10.501Z",
  "networkType": "ethereum",
  "devdoc": {
    "methods": {}
  },
  "userdoc": {
    "methods": {}
  }
}