{
  "contractName": "PropertyFactory",
  "abi": [
    {
      "anonymous": false,
      "inputs": [
        {
          "indexed": false,
          "internalType": "uint256",
          "name": "id",
          "type": "uint256"
        }
      ],
      "name": "NewProperty",
      "type": "event"
    },
    {
      "anonymous": false,
      "inputs": [
        {
          "indexed": true,
          "internalType": "address",
          "name": "_from",
          "type": "address"
        },
        {
          "indexed": true,
          "internalType": "address",
          "name": "_to",
          "type": "address"
        },
        {
          "indexed": false,
          "internalType": "uint256",
          "name": "_value",
          "type": "uint256"
        }
      ],
      "name": "Transfer",
      "type": "event"
    },
    {
      "constant": true,
      "inputs": [
        {
          "internalType": "address",
          "name": "",
          "type": "address"
        }
      ],
      "name": "ownerPropertiesCount",
      "outputs": [
        {
          "internalType": "uint256",
          "name": "",
          "type": "uint256"
        }
      ],
      "payable": false,
      "stateMutability": "view",
      "type": "function"
    },
    {
      "constant": true,
      "inputs": [
        {
          "internalType": "uint256",
          "name": "",
          "type": "uint256"
        }
      ],
      "name": "propertiesToOwner",
      "outputs": [
        {
          "internalType": "address",
          "name": "",
          "type": "address"
        }
      ],
      "payable": false,
      "stateMutability": "view",
      "type": "function"
    },
    {
      "constant": false,
      "inputs": [
        {
          "internalType": "uint256",
          "name": "_price",
          "type": "uint256"
        },
        {
          "internalType": "string",
          "name": "_propertyAddress",
          "type": "string"
        },
        {
          "internalType": "string",
          "name": "_urlImage",
          "type": "string"
        },
        {
          "internalType": "string",
          "name": "_description",
          "type": "string"
        },
        {
          "internalType": "uint256",
          "name": "_surface",
          "type": "uint256"
        },
        {
          "internalType": "string",
          "name": "_hashDocument",
          "type": "string"
        },
        {
          "internalType": "bool",
          "name": "_availability",
          "type": "bool"
        }
      ],
      "name": "createProperty",
      "outputs": [],
      "payable": false,
      "stateMutability": "nonpayable",
      "type": "function"
    },
    {
      "constant": true,
      "inputs": [
        {
          "internalType": "address",
          "name": "_address",
          "type": "address"
        }
      ],
      "name": "getOwnerPropertiesCount",
      "outputs": [
        {
          "internalType": "uint256",
          "name": "",
          "type": "uint256"
        }
      ],
      "payable": false,
      "stateMutability": "view",
      "type": "function"
    },
    {
      "constant": true,
      "inputs": [],
      "name": "getPropertiesCount",
      "outputs": [
        {
          "internalType": "uint256",
          "name": "count",
          "type": "uint256"
        }
      ],
      "payable": false,
      "stateMutability": "view",
      "type": "function"
    },
    {
      "constant": true,
      "inputs": [],
      "name": "getAllProperties",
      "outputs": [
        {
          "components": [
            {
              "internalType": "uint256",
              "name": "id",
              "type": "uint256"
            },
            {
              "internalType": "uint256",
              "name": "price",
              "type": "uint256"
            },
            {
              "internalType": "string",
              "name": "propertyAddress",
              "type": "string"
            },
            {
              "internalType": "string",
              "name": "urlImage",
              "type": "string"
            },
            {
              "internalType": "string",
              "name": "description",
              "type": "string"
            },
            {
              "internalType": "uint256",
              "name": "surface",
              "type": "uint256"
            },
            {
              "internalType": "string",
              "name": "hashDocument",
              "type": "string"
            },
            {
              "internalType": "bool",
              "name": "availability",
              "type": "bool"
            }
          ],
          "internalType": "struct PropertyFactory.Property[]",
          "name": "",
          "type": "tuple[]"
        }
      ],
      "payable": false,
      "stateMutability": "view",
      "type": "function"
    },
    {
      "constant": false,
      "inputs": [
        {
          "internalType": "uint256",
          "name": "_idProperty",
          "type": "uint256"
        },
        {
          "internalType": "uint256",
          "name": "_newPrice",
          "type": "uint256"
        }
      ],
      "name": "setPropertyPrice",
      "outputs": [],
      "payable": false,
      "stateMutability": "nonpayable",
      "type": "function"
    },
    {
      "constant": false,
      "inputs": [
        {
          "internalType": "uint256",
          "name": "_idProperty",
          "type": "uint256"
        },
        {
          "internalType": "bool",
          "name": "availability",
          "type": "bool"
        }
      ],
      "name": "setAvailibilityForSale",
      "outputs": [],
      "payable": false,
      "stateMutability": "nonpayable",
      "type": "function"
    },
    {
      "constant": false,
      "inputs": [
        {
          "internalType": "uint256",
          "name": "_idProperty",
          "type": "uint256"
        },
        {
          "internalType": "address",
          "name": "_buyerAdress",
          "type": "address"
        }
      ],
      "name": "buyProperty",
      "outputs": [],
      "payable": true,
      "stateMutability": "payable",
      "type": "function"
    }
  ],
  "bytecode": "0x6080604052600060015534801561001557600080fd5b50611535806100256000396000f3fe6080604052600436106100865760003560e01c806373e1e3621161005957806373e1e362146101475780638d642c9f146101845780639e92a694146101c1578063beb8354c146101dd578063d4ec915e1461020657610086565b8063110a41ca1461008b578063174000bc146100c85780633d51402c146100f35780634766e2cb1461011e575b600080fd5b34801561009757600080fd5b506100b260048036036100ad9190810190610dc8565b61022f565b6040516100bf9190611338565b60405180910390f35b3480156100d457600080fd5b506100dd610247565b6040516100ea9190611338565b60405180910390f35b3480156100ff57600080fd5b50610108610253565b60405161011591906112b6565b60405180910390f35b34801561012a57600080fd5b5061014560048036036101409190810190610e56565b610574565b005b34801561015357600080fd5b5061016e60048036036101699190810190610df1565b610653565b60405161017b919061129b565b60405180910390f35b34801561019057600080fd5b506101ab60048036036101a69190810190610dc8565b610686565b6040516101b89190611338565b60405180910390f35b6101db60048036036101d69190810190610e1a565b6106cf565b005b3480156101e957600080fd5b5061020460048036036101ff9190810190610f90565b6108ed565b005b34801561021257600080fd5b5061022d60048036036102289190810190610e92565b610a24565b005b60036020528060005260406000206000915090505481565b60008080549050905090565b60606000805480602002602001604051908101604052809291908181526020016000905b8282101561056b5783829060005260206000209060080201604051806101000160405290816000820154815260200160018201548152602001600282018054600181600116156101000203166002900480601f0160208091040260200160405190810160405280929190818152602001828054600181600116156101000203166002900480156103485780601f1061031d57610100808354040283529160200191610348565b820191906000526020600020905b81548152906001019060200180831161032b57829003601f168201915b50505050508152602001600382018054600181600116156101000203166002900480601f0160208091040260200160405190810160405280929190818152602001828054600181600116156101000203166002900480156103ea5780601f106103bf576101008083540402835291602001916103ea565b820191906000526020600020905b8154815290600101906020018083116103cd57829003601f168201915b50505050508152602001600482018054600181600116156101000203166002900480601f01602080910402602001604051908101604052809291908181526020018280546001816001161561010002031660029004801561048c5780601f106104615761010080835404028352916020019161048c565b820191906000526020600020905b81548152906001019060200180831161046f57829003601f168201915b5050505050815260200160058201548152602001600682018054600181600116156101000203166002900480601f0160208091040260200160405190810160405280929190818152602001828054600181600116156101000203166002900480156105385780601f1061050d57610100808354040283529160200191610538565b820191906000526020600020905b81548152906001019060200180831161051b57829003601f168201915b505050505081526020016007820160009054906101000a900460ff16151515158152505081526020019060010190610277565b50505050905090565b81338073ffffffffffffffffffffffffffffffffffffffff166002600084815260200190815260200160002060009054906101000a900473ffffffffffffffffffffffffffffffffffffffff1673ffffffffffffffffffffffffffffffffffffffff1614610617576040517f08c379a000000000000000000000000000000000000000000000000000000000815260040161060e90611318565b60405180910390fd5b826000858154811061062557fe5b906000526020600020906008020160070160006101000a81548160ff02191690831515021790555050505050565b60026020528060005260406000206000915054906101000a900473ffffffffffffffffffffffffffffffffffffffff1681565b6000600360008373ffffffffffffffffffffffffffffffffffffffff1673ffffffffffffffffffffffffffffffffffffffff168152602001908152602001600020549050919050565b81600081815481106106dd57fe5b906000526020600020906008020160070160009054906101000a900460ff1661073b576040517f08c379a0000000000000000000000000000000000000000000000000000000008152600401610732906112f8565b60405180910390fd5b60006002600085815260200190815260200160002060009054906101000a900473ffffffffffffffffffffffffffffffffffffffff169050600360008273ffffffffffffffffffffffffffffffffffffffff1673ffffffffffffffffffffffffffffffffffffffff1681526020019081526020016000206000815480929190600190039190505550600360008473ffffffffffffffffffffffffffffffffffffffff1673ffffffffffffffffffffffffffffffffffffffff16815260200190815260200160002060008154809291906001019190505550826002600086815260200190815260200160002060006101000a81548173ffffffffffffffffffffffffffffffffffffffff021916908373ffffffffffffffffffffffffffffffffffffffff1602179055508073ffffffffffffffffffffffffffffffffffffffff168373ffffffffffffffffffffffffffffffffffffffff167fddf252ad1be2c89b69c2b068fc378daa952ba7f163c4a11628f55a4df523b3ef600087815481106108c057fe5b9060005260206000209060080201600101546040516108df9190611338565b60405180910390a350505050565b81338073ffffffffffffffffffffffffffffffffffffffff166002600084815260200190815260200160002060009054906101000a900473ffffffffffffffffffffffffffffffffffffffff1673ffffffffffffffffffffffffffffffffffffffff1614610990576040517f08c379a000000000000000000000000000000000000000000000000000000000815260040161098790611318565b60405180910390fd5b6000848154811061099d57fe5b906000526020600020906008020160070160009054906101000a900460ff166109fb576040517f08c379a00000000000000000000000000000000000000000000000000000000081526004016109f2906112d8565b60405180910390fd5b8260008581548110610a0957fe5b90600052602060002090600802016001018190555050505050565b610a2c610c49565b604051806101000160405280600154815260200189815260200188815260200187815260200186815260200185815260200184815260200183151581525090506000819080600181540180825580915050906001820390600052602060002090600802016000909192909190915060008201518160000155602082015181600101556040820151816002019080519060200190610aca929190610c90565b506060820151816003019080519060200190610ae7929190610c90565b506080820151816004019080519060200190610b04929190610c90565b5060a0820151816005015560c0820151816006019080519060200190610b2b929190610c90565b5060e08201518160070160006101000a81548160ff0219169083151502179055505050503360026000600154815260200190815260200160002060006101000a81548173ffffffffffffffffffffffffffffffffffffffff021916908373ffffffffffffffffffffffffffffffffffffffff160217905550600360003373ffffffffffffffffffffffffffffffffffffffff1673ffffffffffffffffffffffffffffffffffffffff168152602001908152602001600020600081548092919060010191905055506001600081548092919060010191905055507f49b7a39e21349b16cf820bbd35d2bc2d9f04dac75faa535510fc24d172b34afd6001805403604051610c379190611338565b60405180910390a15050505050505050565b604051806101000160405280600081526020016000815260200160608152602001606081526020016060815260200160008152602001606081526020016000151581525090565b828054600181600116156101000203166002900490600052602060002090601f016020900481019282601f10610cd157805160ff1916838001178555610cff565b82800160010185558215610cff579182015b82811115610cfe578251825591602001919060010190610ce3565b5b509050610d0c9190610d10565b5090565b610d3291905b80821115610d2e576000816000905550600101610d16565b5090565b90565b600081359050610d44816114ad565b92915050565b600081359050610d59816114c4565b92915050565b600082601f830112610d7057600080fd5b8135610d83610d7e82611380565b611353565b91508082526020830160208301858383011115610d9f57600080fd5b610daa83828461145a565b50505092915050565b600081359050610dc2816114db565b92915050565b600060208284031215610dda57600080fd5b6000610de884828501610d35565b91505092915050565b600060208284031215610e0357600080fd5b6000610e1184828501610db3565b91505092915050565b60008060408385031215610e2d57600080fd5b6000610e3b85828601610db3565b9250506020610e4c85828601610d35565b9150509250929050565b60008060408385031215610e6957600080fd5b6000610e7785828601610db3565b9250506020610e8885828601610d4a565b9150509250929050565b600080600080600080600060e0888a031215610ead57600080fd5b6000610ebb8a828b01610db3565b975050602088013567ffffffffffffffff811115610ed857600080fd5b610ee48a828b01610d5f565b965050604088013567ffffffffffffffff811115610f0157600080fd5b610f0d8a828b01610d5f565b955050606088013567ffffffffffffffff811115610f2a57600080fd5b610f368a828b01610d5f565b9450506080610f478a828b01610db3565b93505060a088013567ffffffffffffffff811115610f6457600080fd5b610f708a828b01610d5f565b92505060c0610f818a828b01610d4a565b91505092959891949750929550565b60008060408385031215610fa357600080fd5b6000610fb185828601610db3565b9250506020610fc285828601610db3565b9150509250929050565b6000610fd883836111b8565b905092915050565b610fe981611412565b82525050565b6000610ffa826113bc565b61100481856113df565b935083602082028501611016856113ac565b8060005b8581101561105257848403895281516110338582610fcc565b945061103e836113d2565b925060208a0199505060018101905061101a565b50829750879550505050505092915050565b61106d81611424565b82525050565b600061107e826113c7565b61108881856113f0565b9350611098818560208601611469565b6110a18161149c565b840191505092915050565b60006110b9603483611401565b91507f50726f7065727479206973206e6f7420617661696c61626c6520666f7220736560008301527f6c6c206f72206974206e6f74206578697374732e0000000000000000000000006020830152604082019050919050565b600061111f602683611401565b91507f5468652070726f7065727479206973206e6f7420617661696c61626c6520666f60008301527f722073616c6500000000000000000000000000000000000000000000000000006020830152604082019050919050565b6000611185601683611401565b91507f53656e646572206e6f7420617574686f72697a65642e000000000000000000006000830152602082019050919050565b6000610100830160008301516111d1600086018261127d565b5060208301516111e4602086018261127d565b50604083015184820360408601526111fc8282611073565b915050606083015184820360608601526112168282611073565b915050608083015184820360808601526112308282611073565b91505060a083015161124560a086018261127d565b5060c083015184820360c086015261125d8282611073565b91505060e083015161127260e0860182611064565b508091505092915050565b61128681611450565b82525050565b61129581611450565b82525050565b60006020820190506112b06000830184610fe0565b92915050565b600060208201905081810360008301526112d08184610fef565b905092915050565b600060208201905081810360008301526112f1816110ac565b9050919050565b6000602082019050818103600083015261131181611112565b9050919050565b6000602082019050818103600083015261133181611178565b9050919050565b600060208201905061134d600083018461128c565b92915050565b6000604051905081810181811067ffffffffffffffff8211171561137657600080fd5b8060405250919050565b600067ffffffffffffffff82111561139757600080fd5b601f19601f8301169050602081019050919050565b6000819050602082019050919050565b600081519050919050565b600081519050919050565b6000602082019050919050565b600082825260208201905092915050565b600082825260208201905092915050565b600082825260208201905092915050565b600061141d82611430565b9050919050565b60008115159050919050565b600073ffffffffffffffffffffffffffffffffffffffff82169050919050565b6000819050919050565b82818337600083830152505050565b60005b8381101561148757808201518184015260208101905061146c565b83811115611496576000848401525b50505050565b6000601f19601f8301169050919050565b6114b681611412565b81146114c157600080fd5b50565b6114cd81611424565b81146114d857600080fd5b50565b6114e481611450565b81146114ef57600080fd5b5056fea365627a7a723158202e90de781260f16b75db6db59656afda54b863c1300a7613eaef0e84cc3b4ad56c6578706572696d656e74616cf564736f6c634300050c0040",
  "source": "pragma solidity >=0.4.21;\npragma experimental ABIEncoderV2;\n\n\ncontract PropertyFactory {\n\n    struct Property {\n        uint id;\n        uint256 price;\n        string propertyAddress;\n        string urlImage;\n        string description;\n        uint surface;\n        string hashDocument;\n        bool availability;\n    }\n\n    //List of properties..\n    Property[] properties;\n\n    // Number of properties made for sale.\n    uint propertiesCount = 0;\n\n    // Mapping\n    mapping (uint => address) public propertiesToOwner;\n    mapping (address => uint) public ownerPropertiesCount;\n\n    event NewProperty(uint id);\n    event Transfer(address indexed _from, address indexed _to, uint256 _value);\n\n    // Check that the property with the id _idProperty is belongs to the user with id _userAdress.\n    modifier PropertyOwner(uint256 _idProperty, address _userAdress) {\n        require(propertiesToOwner[_idProperty] == _userAdress, \"Sender not authorized.\");\n        _;\n    }\n\n    //Check if the property is made for sale.\n    modifier PropertyAvailabilty(uint256 _id){\n        require(properties[_id].availability, \"The property is not available for sale\");\n        _;\n    }\n\n    // Create a new property and make it for sale.\n    function createProperty(\n        uint _price,\n        string memory _propertyAddress,\n        string memory _urlImage,\n        string memory _description,\n        uint _surface,\n        string memory _hashDocument,\n        bool _availability\n        )\n        public\n    {\n        // Add the properties.\n        Property memory newProperty = Property(\n            propertiesCount,\n            _price,\n            _propertyAddress,\n            _urlImage,\n            _description,\n            _surface,\n            _hashDocument,\n            _availability\n        );\n\n        //Add property to list of properties.\n        properties.push(newProperty);\n\n        // Add the owner of the property.\n        propertiesToOwner[propertiesCount] = msg.sender;\n        ownerPropertiesCount[msg.sender]++;\n        propertiesCount ++;\n        emit NewProperty(propertiesCount - 1);\n    }\n\n    function getOwnerPropertiesCount(address _address) public view returns (uint)\n    {\n        return  ownerPropertiesCount[_address];\n    }\n\n    function getPropertiesCount() public view returns(uint count)\n    {\n        return properties.length;\n    }\n\n    function getAllProperties() public view returns(Property[] memory)\n    {\n        return properties;\n    }\n \n    //Set new prise for a exsisting property.\n    function setPropertyPrice(uint256 _idProperty, uint256 _newPrice) public PropertyOwner(_idProperty, msg.sender)\n    {\n        require(properties[_idProperty].availability, \"Property is not available for sell or it not exists.\");\n        properties[_idProperty].price = _newPrice;\n    }\n\n    //Change availability state(true or false).\n    function setAvailibilityForSale(uint256 _idProperty, bool availability) public PropertyOwner(_idProperty, msg.sender)\n    {\n        properties[_idProperty].availability = availability;\n    }\n\n    // By a existing property.\n    function buyProperty(uint256 _idProperty, address _buyerAdress)\n        public\n        payable\n        PropertyAvailabilty(_idProperty)\n    {\n        address oldOwner = propertiesToOwner[_idProperty];\n        ownerPropertiesCount[oldOwner] --;\n        ownerPropertiesCount[_buyerAdress] ++;\n        propertiesToOwner[_idProperty] = _buyerAdress;\n        emit Transfer(_buyerAdress, oldOwner, properties[_idProperty].price);\n    }\n}",
  "sourcePath": "/home/bouzeboudja/workspace/5AL/block_chain/unbox/contracts/PropertyFactory.sol",
  "compiler": {
    "name": "solc",
    "version": "0.5.12+commit.7709ece9.Emscripten.clang"
  },
  "schemaVersion": "3.0.19",
  "updatedAt": "2020-01-26T14:02:10.233Z",
  "networkType": "ethereum",
  "devdoc": {
    "methods": {}
  },
  "userdoc": {
    "methods": {}
  }
}