{
  "contractName": "PropertyFactory",
  "abi": [
    {
      "anonymous": false,
      "inputs": [
        {
          "components": [
            {
              "internalType": "uint256",
              "name": "id",
              "type": "uint256"
            },
            {
              "internalType": "string",
              "name": "title",
              "type": "string"
            },
            {
              "internalType": "uint256",
              "name": "price",
              "type": "uint256"
            },
            {
              "internalType": "string",
              "name": "propertyAddress",
              "type": "string"
            },
            {
              "internalType": "string",
              "name": "urlImage",
              "type": "string"
            },
            {
              "internalType": "string",
              "name": "description",
              "type": "string"
            },
            {
              "internalType": "uint256",
              "name": "surface",
              "type": "uint256"
            },
            {
              "internalType": "string",
              "name": "hashDocument",
              "type": "string"
            },
            {
              "internalType": "bool",
              "name": "availability",
              "type": "bool"
            }
          ],
          "indexed": false,
          "internalType": "struct PropertyFactory.Property",
          "name": "property",
          "type": "tuple"
        }
      ],
      "name": "NewProperty",
      "type": "event"
    },
    {
      "anonymous": false,
      "inputs": [
        {
          "indexed": true,
          "internalType": "address",
          "name": "_from",
          "type": "address"
        },
        {
          "indexed": true,
          "internalType": "address",
          "name": "_to",
          "type": "address"
        },
        {
          "indexed": false,
          "internalType": "uint256",
          "name": "_value",
          "type": "uint256"
        }
      ],
      "name": "Transfer",
      "type": "event"
    },
    {
      "constant": true,
      "inputs": [
        {
          "internalType": "address",
          "name": "",
          "type": "address"
        }
      ],
      "name": "ownerPropertiesCount",
      "outputs": [
        {
          "internalType": "uint256",
          "name": "",
          "type": "uint256"
        }
      ],
      "payable": false,
      "stateMutability": "view",
      "type": "function"
    },
    {
      "constant": true,
      "inputs": [
        {
          "internalType": "uint256",
          "name": "",
          "type": "uint256"
        }
      ],
      "name": "propertiesToOwner",
      "outputs": [
        {
          "internalType": "address",
          "name": "",
          "type": "address"
        }
      ],
      "payable": false,
      "stateMutability": "view",
      "type": "function"
    },
    {
      "constant": false,
      "inputs": [
        {
          "internalType": "string",
          "name": "title",
          "type": "string"
        },
        {
          "internalType": "uint256",
          "name": "_price",
          "type": "uint256"
        },
        {
          "internalType": "string",
          "name": "_propertyAddress",
          "type": "string"
        },
        {
          "internalType": "string",
          "name": "_urlImage",
          "type": "string"
        },
        {
          "internalType": "string",
          "name": "_description",
          "type": "string"
        },
        {
          "internalType": "uint256",
          "name": "_surface",
          "type": "uint256"
        },
        {
          "internalType": "string",
          "name": "_hashDocument",
          "type": "string"
        }
      ],
      "name": "createProperty",
      "outputs": [],
      "payable": true,
      "stateMutability": "payable",
      "type": "function"
    },
    {
      "constant": true,
      "inputs": [
        {
          "internalType": "address",
          "name": "_address",
          "type": "address"
        }
      ],
      "name": "getOwnerPropertiesCount",
      "outputs": [
        {
          "internalType": "uint256",
          "name": "",
          "type": "uint256"
        }
      ],
      "payable": false,
      "stateMutability": "view",
      "type": "function"
    },
    {
      "constant": true,
      "inputs": [],
      "name": "getPropertiesCount",
      "outputs": [
        {
          "internalType": "uint256",
          "name": "count",
          "type": "uint256"
        }
      ],
      "payable": false,
      "stateMutability": "view",
      "type": "function"
    },
    {
      "constant": false,
      "inputs": [
        {
          "internalType": "uint256",
          "name": "_idProperty",
          "type": "uint256"
        },
        {
          "internalType": "uint256",
          "name": "_newPrice",
          "type": "uint256"
        }
      ],
      "name": "setPropertyPrice",
      "outputs": [],
      "payable": false,
      "stateMutability": "nonpayable",
      "type": "function"
    },
    {
      "constant": false,
      "inputs": [
        {
          "internalType": "uint256",
          "name": "_idProperty",
          "type": "uint256"
        },
        {
          "internalType": "bool",
          "name": "availability",
          "type": "bool"
        }
      ],
      "name": "setAvailibilityForSale",
      "outputs": [],
      "payable": false,
      "stateMutability": "nonpayable",
      "type": "function"
    },
    {
      "constant": false,
      "inputs": [
        {
          "internalType": "uint256",
          "name": "_idProperty",
          "type": "uint256"
        },
        {
          "internalType": "address payable",
          "name": "receiver",
          "type": "address"
        }
      ],
      "name": "buyProperty",
      "outputs": [],
      "payable": true,
      "stateMutability": "payable",
      "type": "function"
    }
  ],
  "bytecode": "0x6080604052600060015534801561001557600080fd5b506110e1806100256000396000f3fe60806040526004361061007b5760003560e01c806373e1e3621161004e57806373e1e3621461012d5780638d642c9f1461016a5780639e92a694146101a7578063beb8354c146101c35761007b565b80630d79818e14610080578063110a41ca1461009c578063174000bc146100d95780634766e2cb14610104575b600080fd5b61009a60048036036100959190810190610a88565b6101ec565b005b3480156100a857600080fd5b506100c360048036036100be9190810190610a5f565b610432565b6040516100d09190610ef4565b60405180910390f35b3480156100e557600080fd5b506100ee61044a565b6040516100fb9190610ef4565b60405180910390f35b34801561011057600080fd5b5061012b60048036036101269190810190610c03565b610456565b005b34801561013957600080fd5b50610154600480360361014f9190810190610b9e565b610535565b6040516101619190610e77565b60405180910390f35b34801561017657600080fd5b50610191600480360361018c9190810190610a5f565b610568565b60405161019e9190610ef4565b60405180910390f35b6101c160048036036101bc9190810190610bc7565b6105b1565b005b3480156101cf57600080fd5b506101ea60048036036101e59190810190610c3f565b6107f8565b005b6101f46108c4565b60405180610120016040528060015481526020018981526020018881526020018781526020018681526020018581526020018481526020018381526020016001151581525090506000819080600181540180825580915050906001820390600052602060002090600902016000909192909190915060008201518160000155602082015181600101908051906020019061028f929190610912565b506040820151816002015560608201518160030190805190602001906102b6929190610912565b5060808201518160040190805190602001906102d3929190610912565b5060a08201518160050190805190602001906102f0929190610912565b5060c0820151816006015560e0820151816007019080519060200190610317929190610912565b506101008201518160080160006101000a81548160ff0219169083151502179055505050503360026000600154815260200190815260200160002060006101000a81548173ffffffffffffffffffffffffffffffffffffffff021916908373ffffffffffffffffffffffffffffffffffffffff160217905550600360003373ffffffffffffffffffffffffffffffffffffffff1673ffffffffffffffffffffffffffffffffffffffff168152602001908152602001600020600081548092919060010191905055506001600081548092919060010191905055507fbebfacb09efb290202a69b79a156e9dc5752108844bbd89413cf8f89325c334b816040516104209190610ed2565b60405180910390a15050505050505050565b60036020528060005260406000206000915090505481565b60008080549050905090565b81338073ffffffffffffffffffffffffffffffffffffffff166002600084815260200190815260200160002060009054906101000a900473ffffffffffffffffffffffffffffffffffffffff1673ffffffffffffffffffffffffffffffffffffffff16146104f9576040517f08c379a00000000000000000000000000000000000000000000000000000000081526004016104f090610eb2565b60405180910390fd5b826000858154811061050757fe5b906000526020600020906009020160080160006101000a81548160ff02191690831515021790555050505050565b60026020528060005260406000206000915054906101000a900473ffffffffffffffffffffffffffffffffffffffff1681565b6000600360008373ffffffffffffffffffffffffffffffffffffffff1673ffffffffffffffffffffffffffffffffffffffff168152602001908152602001600020549050919050565b81600081815481106105bf57fe5b906000526020600020906009020160080160009054906101000a900460ff1661061d576040517f08c379a000000000000000000000000000000000000000000000000000000000815260040161061490610e92565b60405180910390fd5b60006002600085815260200190815260200160002060009054906101000a900473ffffffffffffffffffffffffffffffffffffffff169050600360008273ffffffffffffffffffffffffffffffffffffffff1673ffffffffffffffffffffffffffffffffffffffff1681526020019081526020016000206000815480929190600190039190505550600360003373ffffffffffffffffffffffffffffffffffffffff1673ffffffffffffffffffffffffffffffffffffffff16815260200190815260200160002060008154809291906001019190505550336002600086815260200190815260200160002060006101000a81548173ffffffffffffffffffffffffffffffffffffffff021916908373ffffffffffffffffffffffffffffffffffffffff1602179055508273ffffffffffffffffffffffffffffffffffffffff166108fc349081150290604051600060405180830381858888f1935050505015801561078c573d6000803e3d6000fd5b508273ffffffffffffffffffffffffffffffffffffffff163373ffffffffffffffffffffffffffffffffffffffff167fddf252ad1be2c89b69c2b068fc378daa952ba7f163c4a11628f55a4df523b3ef346040516107ea9190610ef4565b60405180910390a350505050565b81338073ffffffffffffffffffffffffffffffffffffffff166002600084815260200190815260200160002060009054906101000a900473ffffffffffffffffffffffffffffffffffffffff1673ffffffffffffffffffffffffffffffffffffffff161461089b576040517f08c379a000000000000000000000000000000000000000000000000000000000815260040161089290610eb2565b60405180910390fd5b82600085815481106108a957fe5b90600052602060002090600902016002018190555050505050565b60405180610120016040528060008152602001606081526020016000815260200160608152602001606081526020016060815260200160008152602001606081526020016000151581525090565b828054600181600116156101000203166002900490600052602060002090601f016020900481019282601f1061095357805160ff1916838001178555610981565b82800160010185558215610981579182015b82811115610980578251825591602001919060010190610965565b5b50905061098e9190610992565b5090565b6109b491905b808211156109b0576000816000905550600101610998565b5090565b90565b6000813590506109c681611042565b92915050565b6000813590506109db81611059565b92915050565b6000813590506109f081611070565b92915050565b600082601f830112610a0757600080fd5b8135610a1a610a1582610f3c565b610f0f565b91508082526020830160208301858383011115610a3657600080fd5b610a41838284610fef565b50505092915050565b600081359050610a5981611087565b92915050565b600060208284031215610a7157600080fd5b6000610a7f848285016109b7565b91505092915050565b600080600080600080600060e0888a031215610aa357600080fd5b600088013567ffffffffffffffff811115610abd57600080fd5b610ac98a828b016109f6565b9750506020610ada8a828b01610a4a565b965050604088013567ffffffffffffffff811115610af757600080fd5b610b038a828b016109f6565b955050606088013567ffffffffffffffff811115610b2057600080fd5b610b2c8a828b016109f6565b945050608088013567ffffffffffffffff811115610b4957600080fd5b610b558a828b016109f6565b93505060a0610b668a828b01610a4a565b92505060c088013567ffffffffffffffff811115610b8357600080fd5b610b8f8a828b016109f6565b91505092959891949750929550565b600060208284031215610bb057600080fd5b6000610bbe84828501610a4a565b91505092915050565b60008060408385031215610bda57600080fd5b6000610be885828601610a4a565b9250506020610bf9858286016109cc565b9150509250929050565b60008060408385031215610c1657600080fd5b6000610c2485828601610a4a565b9250506020610c35858286016109e1565b9150509250929050565b60008060408385031215610c5257600080fd5b6000610c6085828601610a4a565b9250506020610c7185828601610a4a565b9150509250929050565b610c8481610f95565b82525050565b610c9381610fb9565b82525050565b6000610ca482610f68565b610cae8185610f73565b9350610cbe818560208601610ffe565b610cc781611031565b840191505092915050565b6000610cdf602683610f84565b91507f5468652070726f7065727479206973206e6f7420617661696c61626c6520666f60008301527f722073616c6500000000000000000000000000000000000000000000000000006020830152604082019050919050565b6000610d45601683610f84565b91507f53656e646572206e6f7420617574686f72697a65642e000000000000000000006000830152602082019050919050565b600061012083016000830151610d916000860182610e59565b5060208301518482036020860152610da98282610c99565b9150506040830151610dbe6040860182610e59565b5060608301518482036060860152610dd68282610c99565b91505060808301518482036080860152610df08282610c99565b91505060a083015184820360a0860152610e0a8282610c99565b91505060c0830151610e1f60c0860182610e59565b5060e083015184820360e0860152610e378282610c99565b915050610100830151610e4e610100860182610c8a565b508091505092915050565b610e6281610fe5565b82525050565b610e7181610fe5565b82525050565b6000602082019050610e8c6000830184610c7b565b92915050565b60006020820190508181036000830152610eab81610cd2565b9050919050565b60006020820190508181036000830152610ecb81610d38565b9050919050565b60006020820190508181036000830152610eec8184610d78565b905092915050565b6000602082019050610f096000830184610e68565b92915050565b6000604051905081810181811067ffffffffffffffff82111715610f3257600080fd5b8060405250919050565b600067ffffffffffffffff821115610f5357600080fd5b601f19601f8301169050602081019050919050565b600081519050919050565b600082825260208201905092915050565b600082825260208201905092915050565b6000610fa082610fc5565b9050919050565b6000610fb282610fc5565b9050919050565b60008115159050919050565b600073ffffffffffffffffffffffffffffffffffffffff82169050919050565b6000819050919050565b82818337600083830152505050565b60005b8381101561101c578082015181840152602081019050611001565b8381111561102b576000848401525b50505050565b6000601f19601f8301169050919050565b61104b81610f95565b811461105657600080fd5b50565b61106281610fa7565b811461106d57600080fd5b50565b61107981610fb9565b811461108457600080fd5b50565b61109081610fe5565b811461109b57600080fd5b5056fea365627a7a72315820aa888dd9a9078eebd541b2ac471694651e60383707f654fe84f517c44c366b3c6c6578706572696d656e74616cf564736f6c634300050c0040",
  "source": "pragma solidity >=0.4.21;\npragma experimental ABIEncoderV2;\n\ncontract PropertyFactory {\n\n    struct Property {\n        uint256 id;\n        string title;\n        uint256 price;\n        string propertyAddress;\n        string urlImage;\n        string description;\n        uint256 surface;\n        string hashDocument;\n        bool availability;\n    }\n\n    //List of properties..\n    Property[] properties;\n\n    // Number of properties made for sale.\n    uint256 propertiesCount = 0;\n\n    // Mapping\n    mapping (uint => address) public propertiesToOwner;\n    mapping (address => uint) public ownerPropertiesCount;\n\n    event NewProperty(Property property);\n    event Transfer(address indexed _from, address indexed _to, uint256 _value);\n\n    // Check that the property with the id _idProperty is belongs to the user with id _userAdress.\n    modifier PropertyOwner(uint256 _idProperty, address _userAdress) {\n        require(propertiesToOwner[_idProperty] == _userAdress, \"Sender not authorized.\");\n        _;\n    }\n\n    //Check if the property is made for sale.\n    modifier PropertyAvailabilty(uint256 _id){\n        require(properties[_id].availability, \"The property is not available for sale\");\n        _;\n    }\n\n    // Create a new property and make it for sale.\n    function createProperty(\n        string memory title,\n        uint _price,\n        string memory _propertyAddress,\n        string memory _urlImage,\n        string memory _description,\n        uint _surface,\n        string memory _hashDocument\n        )\n        public\n        payable\n    {\n        // Add the properties.\n        Property memory newProperty = Property(\n            propertiesCount,\n            title,\n            _price,\n            _propertyAddress,\n            _urlImage,\n            _description,\n            _surface,\n            _hashDocument,\n            true\n        );\n\n        //Add property to list of properties.\n        properties.push(newProperty);\n\n        // Add the owner of the property.\n        propertiesToOwner[propertiesCount] = msg.sender;\n        ownerPropertiesCount[msg.sender]++;\n        propertiesCount++;\n        emit NewProperty(newProperty);\n    }\n\n    function getOwnerPropertiesCount(address _address) public view returns (uint)\n    {\n        return  ownerPropertiesCount[_address];\n    }\n\n    function getPropertiesCount() public view returns(uint count)\n    {\n        return properties.length;\n    }\n\n    //Set new prise for a exsisting property.\n    function setPropertyPrice(uint256 _idProperty, uint256 _newPrice) public PropertyOwner(_idProperty, msg.sender)\n    {\n        properties[_idProperty].price = _newPrice;\n    }\n\n    //Change availability state(true or false).\n    function setAvailibilityForSale(uint256 _idProperty, bool availability) public PropertyOwner(_idProperty, msg.sender)\n    {\n        properties[_idProperty].availability = availability;\n    }\n\n    // Change property owner\n    function buyProperty(uint _idProperty, address payable receiver)\n        public\n        payable\n        PropertyAvailabilty(_idProperty)\n    {\n        address oldOwner = propertiesToOwner[_idProperty];\n        ownerPropertiesCount[oldOwner] --;\n        ownerPropertiesCount[msg.sender] ++;\n        propertiesToOwner[_idProperty] = msg.sender;\n        receiver.transfer(msg.value);\n        emit Transfer(msg.sender, receiver, msg.value);\n    }\n}",
  "sourcePath": "/home/bouzeboudja/workspace/5AL/block_chain/MarketPlace/contracts/PropertyFactory.sol",
  "compiler": {
    "name": "solc",
    "version": "0.5.12+commit.7709ece9.Emscripten.clang"
  },
  "schemaVersion": "3.0.19",
  "updatedAt": "2020-01-28T21:38:21.838Z",
  "networkType": "ethereum",
  "devdoc": {
    "methods": {}
  },
  "userdoc": {
    "methods": {}
  }
}